{
  "contractName": "ChainlinkRoundIdCalc",
  "abi": [
    {
      "inputs": [
        {
          "internalType": "contract AggregatorProxy",
          "name": "proxy",
          "type": "AggregatorProxy"
        },
        {
          "internalType": "uint256",
          "name": "roundId",
          "type": "uint256"
        }
      ],
      "name": "next",
      "outputs": [
        {
          "internalType": "uint80",
          "name": "",
          "type": "uint80"
        }
      ],
      "stateMutability": "view",
      "type": "function",
      "constant": true
    },
    {
      "inputs": [
        {
          "internalType": "contract AggregatorProxy",
          "name": "proxy",
          "type": "AggregatorProxy"
        },
        {
          "internalType": "uint256",
          "name": "roundId",
          "type": "uint256"
        }
      ],
      "name": "prev",
      "outputs": [
        {
          "internalType": "uint80",
          "name": "",
          "type": "uint80"
        }
      ],
      "stateMutability": "view",
      "type": "function",
      "constant": true
    }
  ],
  "bytecode": "0x610791610053600b82828239805160001a607314610046577f4e487b7100000000000000000000000000000000000000000000000000000000600052600060045260246000fd5b30600052607381538281f3fe73000000000000000000000000000000000000000030146080604052600436106100405760003560e01c80632a0313fe14610045578063e43458d714610075575b600080fd5b61005f600480360381019061005a91906104aa565b6100a5565b60405161006c919061050f565b60405180910390f35b61008f600480360381019061008a91906104aa565b61026f565b60405161009c919061050f565b60405180910390f35b60008060006100b3846103c2565b9150915060008573ffffffffffffffffffffffffffffffffffffffff1663c1597304846040518263ffffffff1660e01b81526004016100f29190610547565b602060405180830381865afa15801561010f573d6000803e3d6000fd5b505050506040513d601f19601f8201168201806040525081019061013391906105a0565b73ffffffffffffffffffffffffffffffffffffffff1663668a0f026040518163ffffffff1660e01b8152600401602060405180830381865afa15801561017d573d6000803e3d6000fd5b505050506040513d601f19601f820116820180604052508101906101a191906105e2565b9050808267ffffffffffffffff1610156101c85781806101c090610652565b92505061025a565b8573ffffffffffffffffffffffffffffffffffffffff166358303b106040518163ffffffff1660e01b8152600401602060405180830381865afa158015610213573d6000803e3d6000fd5b505050506040513d601f19601f8201168201806040525081019061023791906106af565b61ffff168361ffff161015610259578280610251906106dc565b935050600191505b5b61026483836103e0565b935050505092915050565b600080600061027d846103c2565b9150915060018167ffffffffffffffff1611156102a757808061029f90610707565b9150506103ae565b60018261ffff1611156103ad5781806102bf90610731565b9250508473ffffffffffffffffffffffffffffffffffffffff1663c1597304836040518263ffffffff1660e01b81526004016102fb9190610547565b602060405180830381865afa158015610318573d6000803e3d6000fd5b505050506040513d601f19601f8201168201806040525081019061033c91906105a0565b73ffffffffffffffffffffffffffffffffffffffff1663668a0f026040518163ffffffff1660e01b8152600401602060405180830381865afa158015610386573d6000803e3d6000fd5b505050506040513d601f19601f820116820180604052508101906103aa91906105e2565b90505b5b6103b882826103e0565b9250505092915050565b6000806000604084901c905060008490508181935093505050915091565b60008167ffffffffffffffff1660408461ffff16901b17905092915050565b600080fd5b600073ffffffffffffffffffffffffffffffffffffffff82169050919050565b600061042f82610404565b9050919050565b600061044182610424565b9050919050565b61045181610436565b811461045c57600080fd5b50565b60008135905061046e81610448565b92915050565b6000819050919050565b61048781610474565b811461049257600080fd5b50565b6000813590506104a48161047e565b92915050565b600080604083850312156104c1576104c06103ff565b5b60006104cf8582860161045f565b92505060206104e085828601610495565b9150509250929050565b600069ffffffffffffffffffff82169050919050565b610509816104ea565b82525050565b60006020820190506105246000830184610500565b92915050565b600061ffff82169050919050565b6105418161052a565b82525050565b600060208201905061055c6000830184610538565b92915050565b600061056d82610424565b9050919050565b61057d81610562565b811461058857600080fd5b50565b60008151905061059a81610574565b92915050565b6000602082840312156105b6576105b56103ff565b5b60006105c48482850161058b565b91505092915050565b6000815190506105dc8161047e565b92915050565b6000602082840312156105f8576105f76103ff565b5b6000610606848285016105cd565b91505092915050565b7f4e487b7100000000000000000000000000000000000000000000000000000000600052601160045260246000fd5b600067ffffffffffffffff82169050919050565b600061065d8261063e565b915067ffffffffffffffff8214156106785761067761060f565b5b600182019050919050565b61068c8161052a565b811461069757600080fd5b50565b6000815190506106a981610683565b92915050565b6000602082840312156106c5576106c46103ff565b5b60006106d38482850161069a565b91505092915050565b60006106e78261052a565b915061ffff8214156106fc576106fb61060f565b5b600182019050919050565b60006107128261063e565b915060008214156107265761072561060f565b5b600182039050919050565b600061073c8261052a565b915060008214156107505761074f61060f565b5b60018203905091905056fea26469706673582212209a15124208e348ba1a8a7ac5b862c3f2712db0d6abc8ec3858e4019d452a1fa764736f6c634300080b0033",
  "immutableReferences": {},
  "source": "// SPDX-License-Identifier: MIT\npragma solidity ^0.8.7;\n\nimport \"./AggregatorProxy.sol\";\n\nlibrary ChainlinkRoundIdCalc {\n    uint256 constant private PHASE_OFFSET = 64;\n\n    /// @return the next round ID\n    // @dev if roundId is the latest round, return the same roundId to indicate that we can't go forward any more\n    function next(AggregatorProxy proxy, uint256 roundId) public view returns (uint80)\n    {\n        (uint16 phaseId, uint64 aggregatorRoundId) = parseIds(roundId);\n        uint maxAggregatorRoundId = proxy.phaseAggregators(phaseId).latestRound();\n\n        if (aggregatorRoundId < maxAggregatorRoundId) {\n            aggregatorRoundId++;\n        }\n        else if (phaseId < proxy.phaseId()) {\n            phaseId++;\n            aggregatorRoundId = 1;  \n        }\n        return addPhase(phaseId, aggregatorRoundId);\n    }\n\n    /// @return the previous round ID \n    /// @dev if roundId is the first ever round, return the same roundId to indicate that we can't go back any further\n    function prev(AggregatorProxy proxy, uint256 roundId) public view returns (uint80)\n    {\n        (uint16 phaseId, uint64 aggregatorRoundId) = parseIds(roundId);\n\n        if (aggregatorRoundId > 1) {\n            aggregatorRoundId--;\n        }\n        else if (phaseId > 1) {\n            phaseId--;\n            aggregatorRoundId = uint64(proxy.phaseAggregators(phaseId).latestRound());\n        }\n        return addPhase(phaseId, aggregatorRoundId);\n    }\n    \n    /// @dev copied from chainlink aggregator contract\n    function addPhase(uint16 _phase, uint64 _originalId) internal pure returns (uint80)\n    {\n        return uint80(uint256(_phase) << PHASE_OFFSET | _originalId);\n    }\n\n    /// @dev copied from chainlink aggregator contract\n    function parseIds(uint256 _roundId) internal pure returns (uint16, uint64)\n    {\n        uint16 phaseId = uint16(_roundId >> PHASE_OFFSET);\n        uint64 aggregatorRoundId = uint64(_roundId);\n\n        return (phaseId, aggregatorRoundId);\n    }\n\n/* \n    not useful for most applications\n    \n    code is untested\n\n\n    /// @notice add `i` to `roundId`. Useful for searching for a particular timestamp\n    /// @dev minimum possible phaseId is 1\n    /// @dev minimum possible aggregatorRoundId is 1\n    /// @dev if desired move amount is gt the current max ID, return the current max ID\n    /// @dev if desired move amount is lt the minimum possible ID, return the minimum possible ID\n    function move(AggregatorProxy proxy, uint256 roundId, int i) public view returns (uint80, int) {\n        (uint16 phaseId, uint64 aggregatorRoundId) = parseIds(roundId);\n        int moved = 0;\n\n        if (i < 0) {\n            while (i < 0) {\n                if (-1*i < aggregatorRoundId) {\n                    moved += i;\n                    aggregatorRoundId += i;\n                    i -= i;\n                }\n                else if (phaseId <= 1) {\n                    moved -= aggregatorRoundId - 1;\n                    aggregatorRoundId = 1;\n                    i = 0;\n                }\n                else {\n                    phaseId -= 1;\n                    moved -= aggregatorRoundId;\n                    i += aggregatorRoundId;\n                    aggregatorRoundId = uint64(proxy.phaseAggregators(phaseId).latestRound());\n                }\n\n            }\n        }\n        else if (i > 0) {\n            while (i > 0) {\n                uint32 latestAggregatorRoundId = proxy.phaseAggregators(phaseId).latestRound();\n                if (aggregatorRoundId + i <= latestAggregatorRoundId) {\n                    moved += i;\n                    aggregatorRoundId += i;\n                    i -= i;\n                }\n                else if (phaseId >= proxy.phaseId()) {\n                    moved += latestAggregatorRoundId - aggregatorRoundId;\n                    aggregatorRoundId = latestAggregatorRoundId;\n                    i = 0;\n                } else {\n                    phaseId += 1;\n                    moved += latestAggregatorRoundId - aggregatorRoundId + 1;\n                    i -= latestAggregatorRoundId - aggregatorRoundId + 1;\n                    aggregatorRoundId = 1;\n                }\n            }\n        }\n\n        return addPhase(phaseId, aggregatorRoundId);\n    }\n    */\n}",
  "sourcePath": "/home/jonah/chainlink-round-id-calc/contracts/ChainlinkRoundIdCalc.sol",
  "compiler": {
    "name": "solc",
    "version": "0.8.11+commit.d7f03943.Emscripten.clang"
  },
  "schemaVersion": "3.4.5",
  "updatedAt": "2022-02-28T02:01:18.050Z",
  "networkType": "ethereum",
  "devdoc": {
    "kind": "dev",
    "methods": {
      "next(AggregatorProxy,uint256)": {
        "returns": {
          "_0": "the next round ID"
        }
      },
      "prev(AggregatorProxy,uint256)": {
        "details": "if roundId is the first ever round, return the same roundId to indicate that we can't go back any further",
        "returns": {
          "_0": "the previous round ID "
        }
      }
    },
    "version": 1
  },
  "userdoc": {
    "kind": "user",
    "methods": {},
    "version": 1
  }
}