{
  "contractName": "ChainlinkRoundIdCalc",
  "abi": [
    {
      "inputs": [
        {
          "internalType": "contract AggregatorProxy",
          "name": "proxy",
          "type": "address"
        },
        {
          "internalType": "uint256",
          "name": "roundId",
          "type": "uint256"
        }
      ],
      "name": "next",
      "outputs": [
        {
          "internalType": "uint80",
          "name": "",
          "type": "uint80"
        }
      ],
      "stateMutability": "view",
      "type": "function"
    },
    {
      "inputs": [
        {
          "internalType": "contract AggregatorProxy",
          "name": "proxy",
          "type": "address"
        },
        {
          "internalType": "uint256",
          "name": "roundId",
          "type": "uint256"
        }
      ],
      "name": "prev",
      "outputs": [
        {
          "internalType": "uint80",
          "name": "",
          "type": "uint80"
        }
      ],
      "stateMutability": "view",
      "type": "function"
    }
  ],
  "bytecode": "0x608060405234801561001057600080fd5b50610787806100206000396000f3fe608060405234801561001057600080fd5b50600436106100365760003560e01c80632b155a6d1461003b57806349f812511461006b575b600080fd5b610055600480360381019061005091906104a0565b61009b565b6040516100629190610505565b60405180910390f35b610085600480360381019061008091906104a0565b6101ee565b6040516100929190610505565b60405180910390f35b60008060006100a9846103b8565b9150915060018167ffffffffffffffff1611156100d35780806100cb90610563565b9150506101da565b60018261ffff1611156101d95781806100eb9061059b565b9250508473ffffffffffffffffffffffffffffffffffffffff1663c1597304836040518263ffffffff1660e01b815260040161012791906105d4565b602060405180830381865afa158015610144573d6000803e3d6000fd5b505050506040513d601f19601f82011682018060405250810190610168919061062d565b73ffffffffffffffffffffffffffffffffffffffff1663668a0f026040518163ffffffff1660e01b8152600401602060405180830381865afa1580156101b2573d6000803e3d6000fd5b505050506040513d601f19601f820116820180604052508101906101d6919061066f565b90505b5b6101e482826103d6565b9250505092915050565b60008060006101fc846103b8565b9150915060008573ffffffffffffffffffffffffffffffffffffffff1663c1597304846040518263ffffffff1660e01b815260040161023b91906105d4565b602060405180830381865afa158015610258573d6000803e3d6000fd5b505050506040513d601f19601f8201168201806040525081019061027c919061062d565b73ffffffffffffffffffffffffffffffffffffffff1663668a0f026040518163ffffffff1660e01b8152600401602060405180830381865afa1580156102c6573d6000803e3d6000fd5b505050506040513d601f19601f820116820180604052508101906102ea919061066f565b9050808267ffffffffffffffff1610156103115781806103099061069c565b9250506103a3565b8573ffffffffffffffffffffffffffffffffffffffff166358303b106040518163ffffffff1660e01b8152600401602060405180830381865afa15801561035c573d6000803e3d6000fd5b505050506040513d601f19601f8201168201806040525081019061038091906106f9565b61ffff168361ffff1610156103a257828061039a90610726565b935050600191505b5b6103ad83836103d6565b935050505092915050565b6000806000604084901c905060008490508181935093505050915091565b60008167ffffffffffffffff1660408461ffff16901b17905092915050565b600080fd5b600073ffffffffffffffffffffffffffffffffffffffff82169050919050565b6000610425826103fa565b9050919050565b60006104378261041a565b9050919050565b6104478161042c565b811461045257600080fd5b50565b6000813590506104648161043e565b92915050565b6000819050919050565b61047d8161046a565b811461048857600080fd5b50565b60008135905061049a81610474565b92915050565b600080604083850312156104b7576104b66103f5565b5b60006104c585828601610455565b92505060206104d68582860161048b565b9150509250929050565b600069ffffffffffffffffffff82169050919050565b6104ff816104e0565b82525050565b600060208201905061051a60008301846104f6565b92915050565b7f4e487b7100000000000000000000000000000000000000000000000000000000600052601160045260246000fd5b600067ffffffffffffffff82169050919050565b600061056e8261054f565b9150600082141561058257610581610520565b5b600182039050919050565b600061ffff82169050919050565b60006105a68261058d565b915060008214156105ba576105b9610520565b5b600182039050919050565b6105ce8161058d565b82525050565b60006020820190506105e960008301846105c5565b92915050565b60006105fa8261041a565b9050919050565b61060a816105ef565b811461061557600080fd5b50565b60008151905061062781610601565b92915050565b600060208284031215610643576106426103f5565b5b600061065184828501610618565b91505092915050565b60008151905061066981610474565b92915050565b600060208284031215610685576106846103f5565b5b60006106938482850161065a565b91505092915050565b60006106a78261054f565b915067ffffffffffffffff8214156106c2576106c1610520565b5b600182019050919050565b6106d68161058d565b81146106e157600080fd5b50565b6000815190506106f3816106cd565b92915050565b60006020828403121561070f5761070e6103f5565b5b600061071d848285016106e4565b91505092915050565b60006107318261058d565b915061ffff82141561074657610745610520565b5b60018201905091905056fea2646970667358221220ac8f4449516b75abc5f2bfdcea0aa34ecce7bb3494a991d00688f6bb2c5cb2ba64736f6c634300080b0033",
  "immutableReferences": {},
  "source": "// SPDX-License-Identifier: MIT\npragma solidity ^0.8.7;\n\ninterface AggregatorInterface {\n  function latestAnswer() external view returns (int256);\n  function latestTimestamp() external view returns (uint256);\n  function latestRound() external view returns (uint256);\n  function getAnswer(uint256 roundId) external view returns (int256);\n  function getTimestamp(uint256 roundId) external view returns (uint256);\n\n  event AnswerUpdated(int256 indexed current, uint256 indexed roundId, uint256 updatedAt);\n  event NewRound(uint256 indexed roundId, address indexed startedBy, uint256 startedAt);\n}\n\ninterface AggregatorV3Interface {\n\n  function decimals() external view returns (uint8);\n  function description() external view returns (string memory);\n  function version() external view returns (uint256);\n\n  // getRoundData and latestRoundData should both raise \"No data present\"\n  // if they do not have data to report, instead of returning unset values\n  // which could be misinterpreted as actual reported values.\n  function getRoundData(uint80 _roundId)\n    external\n    view\n    returns (\n      uint80 roundId,\n      int256 answer,\n      uint256 startedAt,\n      uint256 updatedAt,\n      uint80 answeredInRound\n    );\n  function latestRoundData()\n    external\n    view\n    returns (\n      uint80 roundId,\n      int256 answer,\n      uint256 startedAt,\n      uint256 updatedAt,\n      uint80 answeredInRound\n    );\n\n}\n\ninterface AggregatorV2V3Interface is AggregatorInterface, AggregatorV3Interface\n{\n  function latestRound() external view returns (uint256);\n}\n\n\ninterface AggregatorProxy {\n    function phaseId() external view returns (uint16);\n    function phaseAggregators(uint16 phaseId) external view returns (AggregatorV2V3Interface);\n}\n\ncontract ChainlinkRoundIdCalc {\n    uint256 constant private PHASE_OFFSET = 64;\n\n    function next(AggregatorProxy proxy, uint256 roundId) public view returns (uint80)\n    {\n        (uint16 phaseId, uint64 aggregatorRoundId) = parseIds(roundId);\n        uint maxAggregatorRoundId = proxy.phaseAggregators(phaseId).latestRound();\n\n        if (aggregatorRoundId < maxAggregatorRoundId) {\n            aggregatorRoundId++;\n        }\n        else if (phaseId < proxy.phaseId()) {\n            phaseId++;\n            aggregatorRoundId = 1;\n        }\n        return addPhase(phaseId, aggregatorRoundId);\n    }\n\n    /// @dev if roundId is the first entry, return the same roundId to indicate that we can't go back any further\n    function prev(AggregatorProxy proxy, uint256 roundId) public view returns (uint80)\n    {\n        (uint16 phaseId, uint64 aggregatorRoundId) = parseIds(roundId);\n\n        if (aggregatorRoundId > 1) {\n            aggregatorRoundId--;\n        }\n        else if (phaseId > 1) {\n            phaseId--;\n            aggregatorRoundId = uint64(proxy.phaseAggregators(phaseId).latestRound());\n        }\n        return addPhase(phaseId, aggregatorRoundId);\n    }\n    \n    function addPhase(uint16 _phase, uint64 _originalId) internal pure returns (uint80)\n    {\n        return uint80(uint256(_phase) << PHASE_OFFSET | _originalId);\n    }\n\n    function parseIds(uint256 _roundId) internal pure returns (uint16, uint64)\n    {\n        uint16 phaseId = uint16(_roundId >> PHASE_OFFSET);\n        uint64 aggregatorRoundId = uint64(_roundId);\n\n        return (phaseId, aggregatorRoundId);\n    }\n\n/* \n    not useful for most applications\n    \n    code is untested\n\n\n    /// @notice add `i` to `roundId`. Useful for searching for a particular timestamp\n    /// @dev minimum possible phaseId is 1\n    /// @dev minimum possible aggregatorRoundId is 1\n    /// @dev if desired move amount is gt the current max ID, return the current max ID\n    /// @dev if desired move amount is lt the minimum possible ID, return the minimum possible ID\n    function move(AggregatorProxy proxy, uint256 roundId, int i) public view returns (uint80, int) {\n        (uint16 phaseId, uint64 aggregatorRoundId) = parseIds(roundId);\n        int moved = 0;\n\n        if (i < 0) {\n            while (i < 0) {\n                if (-1*i < aggregatorRoundId) {\n                    moved += i;\n                    aggregatorRoundId += i;\n                    i -= i;\n                }\n                else if (phaseId <= 1) {\n                    moved -= aggregatorRoundId - 1;\n                    aggregatorRoundId = 1;\n                    i = 0;\n                }\n                else {\n                    phaseId -= 1;\n                    moved -= aggregatorRoundId;\n                    i += aggregatorRoundId;\n                    aggregatorRoundId = uint64(proxy.phaseAggregators(phaseId).latestRound());\n                }\n\n            }\n        }\n        else if (i > 0) {\n            while (i > 0) {\n                uint32 latestAggregatorRoundId = proxy.phaseAggregators(phaseId).latestRound();\n                if (aggregatorRoundId + i <= latestAggregatorRoundId) {\n                    moved += i;\n                    aggregatorRoundId += i;\n                    i -= i;\n                }\n                else if (phaseId >= proxy.phaseId()) {\n                    moved += latestAggregatorRoundId - aggregatorRoundId;\n                    aggregatorRoundId = latestAggregatorRoundId;\n                    i = 0;\n                } else {\n                    phaseId += 1;\n                    moved += latestAggregatorRoundId - aggregatorRoundId + 1;\n                    i -= latestAggregatorRoundId - aggregatorRoundId + 1;\n                    aggregatorRoundId = 1;\n                }\n            }\n        }\n\n        return addPhase(phaseId, aggregatorRoundId);\n    }\n    */\n}",
  "sourcePath": "/home/jonah/chainlink-round-id-calc/contracts/ChainlinkRoundIdCalc.sol",
  "compiler": {
    "name": "solc",
    "version": "0.8.11+commit.d7f03943.Emscripten.clang"
  },
  "schemaVersion": "3.4.4",
  "updatedAt": "2022-02-15T04:54:57.022Z",
  "devdoc": {
    "kind": "dev",
    "methods": {
      "prev(address,uint256)": {
        "details": "if roundId is the first entry, return the same roundId to indicate that we can't go back any further"
      }
    },
    "version": 1
  },
  "userdoc": {
    "kind": "user",
    "methods": {},
    "version": 1
  }
}